:100000000C9413011895189518951895189518952E
:100010001895189518951895189518951895189578
:100020001895189518951895189518951895189568
:100030001895189518951895189518951895189558
:100040000C944600189518951895189518951895BC
:100050001895189518951895189518951895189538
:100060001895189518951895189518951895189528
:100070001895189518951895189518951895189518
:100080001895189518951895189518959A938A9318
:10009000FA93EA933A922A921A920A927A936A937C
:1000A0005A934A933A932A931A930A938FB79BB71A
:1000B000E0E2F5E0008111810F5F1F4F00831183A3
:1000C000E0E2F5E0008111810A3020E0120799F4A6
:1000D00001E054D0E2E2F5E000831183E2E2F5E0D2
:1000E0000081118159D000E251D000E010E0E0E23F
:1000F000F5E00083118306E002BF9BBF8FBF09912B
:100100001991299139914991599169917991099060
:10011000199029903990E991F991899199911895BF
:100120001FD00DD001D0FFCFF89403B7036003BFF9
:1001300007B7016007BF06E002BF78940895F894FE
:1001400000E00093900007E609B900E20BB908E16E
:100150000AB906E0009395001098119A78940895D2
:10016000F89400E007B906B1006A06B9329A009126
:1001700061000D7F0093610078940895202F27B9C6
:10018000369A349BFECF04B115B10895F8945D9B67
:10019000FECF0CB9789408950E943901C801F894F3
:1001A0008C0140E157E20E942501D8010A2F005D31
:1001B000EDDF8C0140E157E20E9425018A0148EE03
:1001C00053E00E942501D8010A2F005DDFDF8C017A
:1001D00048EE53E00E9425018A0144E650E00E9467
:1001E0002501D8010A2F005DD1DF8C0144E650E0E3
:1001F0000E9425018A014AE050E00E942501D801B1
:100200000A2F005DC3DF8C014AE050E00E94250107
:10021000DA010A2F005DBADF7894E4E00C943E0125
:1002200000008895FECF0FE10DBF05E00EBFC0E0D6
:10023000D5E00E944901002311F00E945B010E9459
:1002400090000E9410010C94100100241124EFE092
:10025000001F111F001C111C0416150610F0041AB3
:10026000150AEA95AAF7001F111FA0010095109525
:100270000895BA93AA939A938A930895BB81AA8109
:1002800099818881F0E00FB6F894CE0FDF1F0FBE82
:10029000089501E0089520E008D0E9F708953BBFF4
:1002A00027913BB702D0D9F708952D930150104004
:1002B000202F212B089506E1402E03E0502E00E070
:1002C000602EF201362D6BBE07911691F201EE5FA2
:1002D000FF4F3F4F3BBFA791B691F201362DEC5F28
:1002E000FF4F3F4F3BBF479157916691242F252BDE
:1002F000262B21F0FA01362FD2DF01C0CCDF07E038
:10030000400E00E0501E601EA201662D4D3153408C
:0D0310006040B8F2089504002005000000D0
:00000001FF
:00000001FF
